{
  "_format": "hh-sol-artifact-1",
  "contractName": "token",
  "sourceName": "contracts/token.sol",
  "abi": [
    {
      "inputs": [],
      "stateMutability": "nonpayable",
      "type": "constructor"
    },
    {
      "inputs": [
        {
          "internalType": "address",
          "name": "_add",
          "type": "address"
        }
      ],
      "name": "getbalance",
      "outputs": [
        {
          "internalType": "uint256",
          "name": "",
          "type": "uint256"
        }
      ],
      "stateMutability": "view",
      "type": "function"
    },
    {
      "inputs": [],
      "name": "name",
      "outputs": [
        {
          "internalType": "string",
          "name": "",
          "type": "string"
        }
      ],
      "stateMutability": "view",
      "type": "function"
    },
    {
      "inputs": [],
      "name": "owner",
      "outputs": [
        {
          "internalType": "address",
          "name": "",
          "type": "address"
        }
      ],
      "stateMutability": "view",
      "type": "function"
    },
    {
      "inputs": [],
      "name": "symbol",
      "outputs": [
        {
          "internalType": "string",
          "name": "",
          "type": "string"
        }
      ],
      "stateMutability": "view",
      "type": "function"
    },
    {
      "inputs": [],
      "name": "totalsupply",
      "outputs": [
        {
          "internalType": "uint256",
          "name": "",
          "type": "uint256"
        }
      ],
      "stateMutability": "view",
      "type": "function"
    },
    {
      "inputs": [
        {
          "internalType": "address",
          "name": "_to",
          "type": "address"
        },
        {
          "internalType": "uint256",
          "name": "_amount",
          "type": "uint256"
        }
      ],
      "name": "transfer",
      "outputs": [],
      "stateMutability": "payable",
      "type": "function"
    }
  ],
  "bytecode": "0x60c0604052601260809081527141646974796120576564732053616b73686960701b60a052600090610031908261013a565b5060408051808201909152600381526253415360e81b6020820152600190610059908261013a565b506103e860025534801561006c57600080fd5b5060025433600081815260046020526040902091909155600380546001600160a01b03191690911790556101f9565b634e487b7160e01b600052604160045260246000fd5b600181811c908216806100c557607f821691505b6020821081036100e557634e487b7160e01b600052602260045260246000fd5b50919050565b601f82111561013557600081815260208120601f850160051c810160208610156101125750805b601f850160051c820191505b818110156101315782815560010161011e565b5050505b505050565b81516001600160401b038111156101535761015361009b565b6101678161016184546100b1565b846100eb565b602080601f83116001811461019c57600084156101845750858301515b600019600386901b1c1916600185901b178555610131565b600085815260208120601f198616915b828110156101cb578886015182559484019460019091019084016101ac565b50858210156101e95787850151600019600388901b60f8161c191681555b5050505050600190811b01905550565b6105bb806102086000396000f3fe6080604052600436106100555760003560e01c806306fdde031461005a578063681161771461008557806372dd529b146100c95780638da5cb5b146100df57806395d89b4114610117578063a9059cbb1461012c575b600080fd5b34801561006657600080fd5b5061006f610141565b60405161007c919061040c565b60405180910390f35b34801561009157600080fd5b506100bb6100a0366004610442565b6001600160a01b031660009081526004602052604090205490565b60405190815260200161007c565b3480156100d557600080fd5b506100bb60025481565b3480156100eb57600080fd5b506003546100ff906001600160a01b031681565b6040516001600160a01b03909116815260200161007c565b34801561012357600080fd5b5061006f6101cf565b61013f61013a36600461045d565b6101dc565b005b6000805461014e90610487565b80601f016020809104026020016040519081016040528092919081815260200182805461017a90610487565b80156101c75780601f1061019c576101008083540402835291602001916101c7565b820191906000526020600020905b8154815290600101906020018083116101aa57829003601f168201915b505050505081565b6001805461014e90610487565b6101ff6040518060600160405280602d8152602001610559602d91398284610310565b6102636040518060400160405280601c81526020017f322e53656e6465722042616c616e636520257320546f6b656e733a200000000081525060046000336001600160a01b03166001600160a01b031681526020019081526020016000205461035c565b336000908152600460205260409020548111156102b95760405162461bcd60e51b815260206004820152601060248201526f4e4f5420454e4f554748204d4f4e455960801b604482015260640160405180910390fd5b336000908152600460205260409020546102d49082906104d7565b33600090815260046020526040808220929092556001600160a01b038416815290812080548392906103079084906104f0565b90915550505050565b61035783838360405160240161032893929190610503565b60408051601f198184030181529190526020810180516001600160e01b031663038fd88960e31b1790526103a5565b505050565b6103a18282604051602401610372929190610536565b60408051601f198184030181529190526020810180516001600160e01b0316632d839cb360e21b1790526103a5565b5050565b80516a636f6e736f6c652e6c6f67602083016000808483855afa5050505050565b6000815180845260005b818110156103ec576020818501810151868301820152016103d0565b506000602082860101526020601f19601f83011685010191505092915050565b60208152600061041f60208301846103c6565b9392505050565b80356001600160a01b038116811461043d57600080fd5b919050565b60006020828403121561045457600080fd5b61041f82610426565b6000806040838503121561047057600080fd5b61047983610426565b946020939093013593505050565b600181811c9082168061049b57607f821691505b6020821081036104bb57634e487b7160e01b600052602260045260246000fd5b50919050565b634e487b7160e01b600052601160045260246000fd5b818103818111156104ea576104ea6104c1565b92915050565b808201808211156104ea576104ea6104c1565b60608152600061051660608301866103c6565b6020830194909452506001600160a01b0391909116604090910152919050565b60408152600061054960408301856103c6565b9050826020830152939250505056fe312e53656e6465722069732025732073656e64696e6720546f6b656e7320257320416464726573736573203a20a2646970667358221220351e8a35f887d58c348e0f76d69c24e01db71a222761e6df52122d498ddfadda64736f6c63430008130033",
  "linkReferences": {},
  "deployedLinkReferences": {}
}