{
  "_format": "hh-sol-artifact-1",
  "contractName": "chai",
  "sourceName": "contracts/chai.sol",
  "abi": [
    {
      "inputs": [],
      "stateMutability": "nonpayable",
      "type": "constructor"
    },
    {
      "inputs": [
        {
          "internalType": "string",
          "name": "_name",
          "type": "string"
        },
        {
          "internalType": "string",
          "name": "_message",
          "type": "string"
        }
      ],
      "name": "buyChai",
      "outputs": [],
      "stateMutability": "payable",
      "type": "function"
    },
    {
      "inputs": [],
      "name": "getmemo",
      "outputs": [
        {
          "components": [
            {
              "internalType": "string",
              "name": "name",
              "type": "string"
            },
            {
              "internalType": "string",
              "name": "message",
              "type": "string"
            },
            {
              "internalType": "uint256",
              "name": "timestamp",
              "type": "uint256"
            },
            {
              "internalType": "address",
              "name": "from",
              "type": "address"
            }
          ],
          "internalType": "struct chai.Memo[]",
          "name": "",
          "type": "tuple[]"
        }
      ],
      "stateMutability": "view",
      "type": "function"
    }
  ],
  "bytecode": "0x608060405234801561001057600080fd5b50600180546001600160a01b031916331790556106b7806100326000396000f3fe6080604052600436106100295760003560e01c80634b4a42361461002e5780636a13d85914610059575b600080fd5b34801561003a57600080fd5b5061004361006e565b604051610050919061038d565b60405180910390f35b61006c6100673660046104d4565b610214565b005b60606000805480602002602001604051908101604052809291908181526020016000905b8282101561020b57838290600052602060002090600402016040518060800160405290816000820180546100c590610538565b80601f01602080910402602001604051908101604052809291908181526020018280546100f190610538565b801561013e5780601f106101135761010080835404028352916020019161013e565b820191906000526020600020905b81548152906001019060200180831161012157829003601f168201915b5050505050815260200160018201805461015790610538565b80601f016020809104026020016040519081016040528092919081815260200182805461018390610538565b80156101d05780601f106101a5576101008083540402835291602001916101d0565b820191906000526020600020905b8154815290600101906020018083116101b357829003601f168201915b505050918352505060028201546020808301919091526003909201546001600160a01b03166040909101529082526001929092019101610092565b50505050905090565b6000341161025c5760405162461bcd60e51b8152602060048201526011602482015270706c65617365207061792045746865727360781b604482015260640160405180910390fd5b6001546040516001600160a01b03909116903480156108fc02916000818181858888f19350505050158015610295573d6000803e3d6000fd5b506040805160808101825283815260208101839052429181019190915233606082015260008054600181018255908052815160049091027f290decd9548b62a8d60345a988386fc84ba6bc95484008f6362f93160ef3e563019081906102fb90826105c1565b506020820151600182019061031090826105c1565b5060408201516002820155606090910151600390910180546001600160a01b0319166001600160a01b039092169190911790555050565b6000815180845260005b8181101561036d57602081850181015186830182015201610351565b506000602082860101526020601f19601f83011685010191505092915050565b60006020808301818452808551808352604092508286019150828160051b87010184880160005b8381101561042357603f198984030185528151608081518186526103da82870182610347565b915050888201518582038a8701526103f28282610347565b838a0151878b01526060938401516001600160a01b03169390960192909252505093860193908601906001016103b4565b509098975050505050505050565b634e487b7160e01b600052604160045260246000fd5b600082601f83011261045857600080fd5b813567ffffffffffffffff8082111561047357610473610431565b604051601f8301601f19908116603f0116810190828211818310171561049b5761049b610431565b816040528381528660208588010111156104b457600080fd5b836020870160208301376000602085830101528094505050505092915050565b600080604083850312156104e757600080fd5b823567ffffffffffffffff808211156104ff57600080fd5b61050b86838701610447565b9350602085013591508082111561052157600080fd5b5061052e85828601610447565b9150509250929050565b600181811c9082168061054c57607f821691505b60208210810361056c57634e487b7160e01b600052602260045260246000fd5b50919050565b601f8211156105bc57600081815260208120601f850160051c810160208610156105995750805b601f850160051c820191505b818110156105b8578281556001016105a5565b5050505b505050565b815167ffffffffffffffff8111156105db576105db610431565b6105ef816105e98454610538565b84610572565b602080601f831160018114610624576000841561060c5750858301515b600019600386901b1c1916600185901b1785556105b8565b600085815260208120601f198616915b8281101561065357888601518255948401946001909101908401610634565b50858210156106715787850151600019600388901b60f8161c191681555b5050505050600190811b0190555056fea2646970667358221220bbc115a7c0332e9c0c99f905ae22fa4ac06230bce8ce185a94d34333b835ccfd64736f6c63430008130033",
  "linkReferences": {},
  "deployedLinkReferences": {}
}