{
  "_format": "hh-sol-artifact-1",
  "contractName": "dapp",
  "sourceName": "contracts/Dappazon.sol",
  "abi": [
    {
      "inputs": [],
      "stateMutability": "nonpayable",
      "type": "constructor"
    },
    {
      "anonymous": false,
      "inputs": [
        {
          "indexed": false,
          "internalType": "address",
          "name": "buyer",
          "type": "address"
        },
        {
          "indexed": false,
          "internalType": "uint256",
          "name": "orderID",
          "type": "uint256"
        },
        {
          "indexed": false,
          "internalType": "uint256",
          "name": "ItemId",
          "type": "uint256"
        }
      ],
      "name": "Buy",
      "type": "event"
    },
    {
      "anonymous": false,
      "inputs": [
        {
          "indexed": false,
          "internalType": "string",
          "name": "name",
          "type": "string"
        },
        {
          "indexed": false,
          "internalType": "uint256",
          "name": "price",
          "type": "uint256"
        },
        {
          "indexed": false,
          "internalType": "uint256",
          "name": "quantity",
          "type": "uint256"
        }
      ],
      "name": "List",
      "type": "event"
    },
    {
      "inputs": [
        {
          "internalType": "uint256",
          "name": "_id",
          "type": "uint256"
        }
      ],
      "name": "buy",
      "outputs": [],
      "stateMutability": "payable",
      "type": "function"
    },
    {
      "inputs": [
        {
          "internalType": "uint256",
          "name": "_id",
          "type": "uint256"
        },
        {
          "internalType": "string",
          "name": "_name",
          "type": "string"
        },
        {
          "internalType": "string",
          "name": "_category",
          "type": "string"
        },
        {
          "internalType": "string",
          "name": "_image",
          "type": "string"
        },
        {
          "internalType": "uint256",
          "name": "_cost",
          "type": "uint256"
        },
        {
          "internalType": "uint256",
          "name": "_rating",
          "type": "uint256"
        },
        {
          "internalType": "uint256",
          "name": "_stock",
          "type": "uint256"
        }
      ],
      "name": "list",
      "outputs": [],
      "stateMutability": "nonpayable",
      "type": "function"
    },
    {
      "inputs": [
        {
          "internalType": "address",
          "name": "",
          "type": "address"
        }
      ],
      "name": "ordercount",
      "outputs": [
        {
          "internalType": "uint256",
          "name": "",
          "type": "uint256"
        }
      ],
      "stateMutability": "view",
      "type": "function"
    },
    {
      "inputs": [
        {
          "internalType": "address",
          "name": "",
          "type": "address"
        },
        {
          "internalType": "uint256",
          "name": "",
          "type": "uint256"
        }
      ],
      "name": "orders",
      "outputs": [
        {
          "internalType": "uint256",
          "name": "time",
          "type": "uint256"
        },
        {
          "components": [
            {
              "internalType": "uint256",
              "name": "id",
              "type": "uint256"
            },
            {
              "internalType": "string",
              "name": "name",
              "type": "string"
            },
            {
              "internalType": "string",
              "name": "category",
              "type": "string"
            },
            {
              "internalType": "string",
              "name": "image",
              "type": "string"
            },
            {
              "internalType": "uint256",
              "name": "cost",
              "type": "uint256"
            },
            {
              "internalType": "uint256",
              "name": "rating",
              "type": "uint256"
            },
            {
              "internalType": "uint256",
              "name": "stock",
              "type": "uint256"
            }
          ],
          "internalType": "struct dapp.Items",
          "name": "item",
          "type": "tuple"
        }
      ],
      "stateMutability": "view",
      "type": "function"
    },
    {
      "inputs": [],
      "name": "owner",
      "outputs": [
        {
          "internalType": "address",
          "name": "",
          "type": "address"
        }
      ],
      "stateMutability": "view",
      "type": "function"
    },
    {
      "inputs": [
        {
          "internalType": "uint256",
          "name": "",
          "type": "uint256"
        }
      ],
      "name": "products",
      "outputs": [
        {
          "internalType": "uint256",
          "name": "id",
          "type": "uint256"
        },
        {
          "internalType": "string",
          "name": "name",
          "type": "string"
        },
        {
          "internalType": "string",
          "name": "category",
          "type": "string"
        },
        {
          "internalType": "string",
          "name": "image",
          "type": "string"
        },
        {
          "internalType": "uint256",
          "name": "cost",
          "type": "uint256"
        },
        {
          "internalType": "uint256",
          "name": "rating",
          "type": "uint256"
        },
        {
          "internalType": "uint256",
          "name": "stock",
          "type": "uint256"
        }
      ],
      "stateMutability": "view",
      "type": "function"
    },
    {
      "inputs": [],
      "name": "withdraw",
      "outputs": [],
      "stateMutability": "nonpayable",
      "type": "function"
    }
  ],
  "bytecode": "0x608060405234801561001057600080fd5b50600080546001600160a01b03191633179055610fc6806100326000396000f3fe6080604052600436106100705760003560e01c8063823c179d1161004e578063823c179d146100f65780638da5cb5b14610131578063d96a094a14610169578063eea8a7e81461017c57600080fd5b80633ccfd60b14610075578063793b8c6d1461008c5780637acc0b20146100c3575b600080fd5b34801561008157600080fd5b5061008a61019c565b005b34801561009857600080fd5b506100ac6100a7366004610af0565b610252565b6040516100ba929190610b60565b60405180910390f35b3480156100cf57600080fd5b506100e36100de366004610bf6565b61046b565b6040516100ba9796959493929190610c0f565b34801561010257600080fd5b50610123610111366004610c6e565b60026020526000908152604090205481565b6040519081526020016100ba565b34801561013d57600080fd5b50600054610151906001600160a01b031681565b6040516001600160a01b0390911681526020016100ba565b61008a610177366004610bf6565b61063d565b34801561018857600080fd5b5061008a610197366004610d33565b610996565b6000546001600160a01b031633146101ef5760405162461bcd60e51b81526020600482015260116024820152702cb7ba9026bab9ba1021329027bbb732b960791b60448201526064015b60405180910390fd5b600080546040516001600160a01b039091169047908381818185875af1925050503d806000811461023c576040519150601f19603f3d011682016040523d82523d6000602084013e610241565b606091505b505090508061024f57600080fd5b50565b600360205281600052604060002060205280600052604060002060009150915050806000015490806001016040518060e0016040529081600082015481526020016001820180546102a290610de0565b80601f01602080910402602001604051908101604052809291908181526020018280546102ce90610de0565b801561031b5780601f106102f05761010080835404028352916020019161031b565b820191906000526020600020905b8154815290600101906020018083116102fe57829003601f168201915b5050505050815260200160028201805461033490610de0565b80601f016020809104026020016040519081016040528092919081815260200182805461036090610de0565b80156103ad5780601f10610382576101008083540402835291602001916103ad565b820191906000526020600020905b81548152906001019060200180831161039057829003601f168201915b505050505081526020016003820180546103c690610de0565b80601f01602080910402602001604051908101604052809291908181526020018280546103f290610de0565b801561043f5780601f106104145761010080835404028352916020019161043f565b820191906000526020600020905b81548152906001019060200180831161042257829003601f168201915b505050505081526020016004820154815260200160058201548152602001600682015481525050905082565b60016020819052600091825260409091208054918101805461048c90610de0565b80601f01602080910402602001604051908101604052809291908181526020018280546104b890610de0565b80156105055780601f106104da57610100808354040283529160200191610505565b820191906000526020600020905b8154815290600101906020018083116104e857829003601f168201915b50505050509080600201805461051a90610de0565b80601f016020809104026020016040519081016040528092919081815260200182805461054690610de0565b80156105935780601f1061056857610100808354040283529160200191610593565b820191906000526020600020905b81548152906001019060200180831161057657829003601f168201915b5050505050908060030180546105a890610de0565b80601f01602080910402602001604051908101604052809291908181526020018280546105d490610de0565b80156106215780601f106105f657610100808354040283529160200191610621565b820191906000526020600020905b81548152906001019060200180831161060457829003601f168201915b5050505050908060040154908060050154908060060154905087565b6000818152600160208181526040808420815160e0810190925280548252928301805491939284019161066f90610de0565b80601f016020809104026020016040519081016040528092919081815260200182805461069b90610de0565b80156106e85780601f106106bd576101008083540402835291602001916106e8565b820191906000526020600020905b8154815290600101906020018083116106cb57829003601f168201915b5050505050815260200160028201805461070190610de0565b80601f016020809104026020016040519081016040528092919081815260200182805461072d90610de0565b801561077a5780601f1061074f5761010080835404028352916020019161077a565b820191906000526020600020905b81548152906001019060200180831161075d57829003601f168201915b5050505050815260200160038201805461079390610de0565b80601f01602080910402602001604051908101604052809291908181526020018280546107bf90610de0565b801561080c5780601f106107e15761010080835404028352916020019161080c565b820191906000526020600020905b8154815290600101906020018083116107ef57829003601f168201915b5050505050815260200160048201548152602001600582015481526020016006820154815250509050806080015134101561084657600080fd5b60008160c001511161085757600080fd5b604080518082018252428152602080820184905233600090815260029091529190912054610886906001610e30565b3360009081526002602081815260408084208590556003825280842094845293815292909120835181558383015180516001830190815593810151859492939192918401906108d59082610e98565b50604082015160028201906108ea9082610e98565b50606082015160038201906108ff9082610e98565b506080820151600482015560a0820151600582015560c091820151600690910155840151610931925060019150610f58565b6000848152600160209081526040808320600601939093553380835260028252918390205485518451938452918301528183015290517f1cbc5ab135991bd2b6a4b034a04aa2aa086dac1371cb9b16b8b5e2ed6b036bed9181900360600190a1505050565b6000546001600160a01b031633146109e45760405162461bcd60e51b81526020600482015260116024820152702cb7ba9026bab9ba1021329027bbb732b960791b60448201526064016101e6565b6040805160e0810182528881526020808201898152828401899052606083018890526080830187905260a0830186905260c0830185905260008b815260019283905293909320825181559251919283929091820190610a439082610e98565b5060408201516002820190610a589082610e98565b5060608201516003820190610a6d9082610e98565b506080820151816004015560a0820151816005015560c082015181600601559050507ffdbe2a012c10ec01592653978eaa09b5ca60b143a0e617505b2ebcbd911ec5b8878584604051610ac293929190610f6b565b60405180910390a15050505050505050565b80356001600160a01b0381168114610aeb57600080fd5b919050565b60008060408385031215610b0357600080fd5b610b0c83610ad4565b946020939093013593505050565b6000815180845260005b81811015610b4057602081850181015186830182015201610b24565b506000602082860101526020601f19601f83011685010191505092915050565b82815260406020820152815160408201526000602083015160e06060840152610b8d610120840182610b1a565b90506040840151603f1980858403016080860152610bab8383610b1a565b925060608601519150808584030160a086015250610bc98282610b1a565b915050608084015160c084015260a084015160e084015260c0840151610100840152809150509392505050565b600060208284031215610c0857600080fd5b5035919050565b87815260e060208201526000610c2860e0830189610b1a565b8281036040840152610c3a8189610b1a565b90508281036060840152610c4e8188610b1a565b6080840196909652505060a081019290925260c090910152949350505050565b600060208284031215610c8057600080fd5b610c8982610ad4565b9392505050565b634e487b7160e01b600052604160045260246000fd5b600082601f830112610cb757600080fd5b813567ffffffffffffffff80821115610cd257610cd2610c90565b604051601f8301601f19908116603f01168101908282118183101715610cfa57610cfa610c90565b81604052838152866020858801011115610d1357600080fd5b836020870160208301376000602085830101528094505050505092915050565b600080600080600080600060e0888a031215610d4e57600080fd5b87359650602088013567ffffffffffffffff80821115610d6d57600080fd5b610d798b838c01610ca6565b975060408a0135915080821115610d8f57600080fd5b610d9b8b838c01610ca6565b965060608a0135915080821115610db157600080fd5b50610dbe8a828b01610ca6565b979a969950949760808101359660a0820135965060c090910135945092505050565b600181811c90821680610df457607f821691505b602082108103610e1457634e487b7160e01b600052602260045260246000fd5b50919050565b634e487b7160e01b600052601160045260246000fd5b80820180821115610e4357610e43610e1a565b92915050565b601f821115610e9357600081815260208120601f850160051c81016020861015610e705750805b601f850160051c820191505b81811015610e8f57828155600101610e7c565b5050505b505050565b815167ffffffffffffffff811115610eb257610eb2610c90565b610ec681610ec08454610de0565b84610e49565b602080601f831160018114610efb5760008415610ee35750858301515b600019600386901b1c1916600185901b178555610e8f565b600085815260208120601f198616915b82811015610f2a57888601518255948401946001909101908401610f0b565b5085821015610f485787850151600019600388901b60f8161c191681555b5050505050600190811b01905550565b81810381811115610e4357610e43610e1a565b606081526000610f7e6060830186610b1a565b6020830194909452506040015291905056fea264697066735822122046e5b881db2a94567887597b9aa683d77901ed42dcea712a2a40da1859c71c4264736f6c63430008110033",
  "linkReferences": {},
  "deployedLinkReferences": {}
}